{
  "contractName": "DistributionContract",
  "abi": [
    {
      "inputs": [
        {
          "internalType": "address",
          "name": "myToken_",
          "type": "address"
        }
      ],
      "stateMutability": "nonpayable",
      "type": "constructor"
    },
    {
      "anonymous": false,
      "inputs": [
        {
          "indexed": false,
          "internalType": "address",
          "name": "beneficiaries",
          "type": "address"
        },
        {
          "indexed": false,
          "internalType": "uint256",
          "name": "amount",
          "type": "uint256"
        }
      ],
      "name": "ClaimInfo",
      "type": "event"
    },
    {
      "anonymous": false,
      "inputs": [
        {
          "indexed": false,
          "internalType": "address",
          "name": "beneficiary",
          "type": "address"
        },
        {
          "indexed": false,
          "internalType": "uint256",
          "name": "amount",
          "type": "uint256"
        }
      ],
      "name": "DecreaseReward",
      "type": "event"
    },
    {
      "anonymous": false,
      "inputs": [
        {
          "indexed": false,
          "internalType": "address",
          "name": "owner",
          "type": "address"
        },
        {
          "indexed": false,
          "internalType": "uint256",
          "name": "amount",
          "type": "uint256"
        }
      ],
      "name": "Deposit",
      "type": "event"
    },
    {
      "anonymous": false,
      "inputs": [
        {
          "indexed": false,
          "internalType": "uint256",
          "name": "amount",
          "type": "uint256"
        }
      ],
      "name": "EmergencyWithdraw",
      "type": "event"
    },
    {
      "anonymous": false,
      "inputs": [
        {
          "indexed": false,
          "internalType": "bool",
          "name": "lock",
          "type": "bool"
        }
      ],
      "name": "LockStatus",
      "type": "event"
    },
    {
      "anonymous": false,
      "inputs": [
        {
          "indexed": false,
          "internalType": "address[]",
          "name": "beneficiaries",
          "type": "address[]"
        },
        {
          "indexed": false,
          "internalType": "uint256[]",
          "name": "amount",
          "type": "uint256[]"
        }
      ],
      "name": "RewardCollectBeneficiaries",
      "type": "event"
    },
    {
      "anonymous": false,
      "inputs": [
        {
          "indexed": false,
          "internalType": "address",
          "name": "beneficiary",
          "type": "address"
        },
        {
          "indexed": false,
          "internalType": "uint256",
          "name": "amount",
          "type": "uint256"
        }
      ],
      "name": "RewardCollectBeneficiary",
      "type": "event"
    },
    {
      "inputs": [
        {
          "internalType": "address",
          "name": "",
          "type": "address"
        }
      ],
      "name": "balanceOfBeneficiares",
      "outputs": [
        {
          "internalType": "uint256",
          "name": "",
          "type": "uint256"
        }
      ],
      "stateMutability": "view",
      "type": "function",
      "constant": true
    },
    {
      "inputs": [],
      "name": "lockStatus",
      "outputs": [
        {
          "internalType": "bool",
          "name": "",
          "type": "bool"
        }
      ],
      "stateMutability": "view",
      "type": "function",
      "constant": true
    },
    {
      "inputs": [
        {
          "internalType": "uint256",
          "name": "amount_",
          "type": "uint256"
        }
      ],
      "name": "deposit",
      "outputs": [],
      "stateMutability": "nonpayable",
      "type": "function"
    },
    {
      "inputs": [
        {
          "internalType": "address[]",
          "name": "beneficiaries_",
          "type": "address[]"
        },
        {
          "internalType": "uint256[]",
          "name": "amount_",
          "type": "uint256[]"
        }
      ],
      "name": "addBeneficiaries",
      "outputs": [],
      "stateMutability": "nonpayable",
      "type": "function"
    },
    {
      "inputs": [
        {
          "internalType": "address",
          "name": "beneficiary_",
          "type": "address"
        },
        {
          "internalType": "uint256",
          "name": "amount_",
          "type": "uint256"
        }
      ],
      "name": "addBeneficiary",
      "outputs": [],
      "stateMutability": "nonpayable",
      "type": "function"
    },
    {
      "inputs": [
        {
          "internalType": "address",
          "name": "beneficiary_",
          "type": "address"
        },
        {
          "internalType": "uint256",
          "name": "amount_",
          "type": "uint256"
        }
      ],
      "name": "decreaseReward",
      "outputs": [],
      "stateMutability": "nonpayable",
      "type": "function"
    },
    {
      "inputs": [
        {
          "internalType": "uint256",
          "name": "amount_",
          "type": "uint256"
        }
      ],
      "name": "emergencyWithdraw",
      "outputs": [],
      "stateMutability": "nonpayable",
      "type": "function"
    },
    {
      "inputs": [
        {
          "internalType": "bool",
          "name": "lock_",
          "type": "bool"
        }
      ],
      "name": "lockRewards",
      "outputs": [],
      "stateMutability": "nonpayable",
      "type": "function"
    },
    {
      "inputs": [],
      "name": "claim",
      "outputs": [],
      "stateMutability": "nonpayable",
      "type": "function"
    }
  ],
  "bytecode": "0x60806040523480156200001157600080fd5b5060405162001ebe38038062001ebe833981810160405281019062000037919062000133565b60008173ffffffffffffffffffffffffffffffffffffffff163b1162000094576040517f08c379a00000000000000000000000000000000000000000000000000000000081526004016200008b906200018c565b60405180910390fd5b80600260006101000a81548173ffffffffffffffffffffffffffffffffffffffff021916908373ffffffffffffffffffffffffffffffffffffffff160217905550336001806101000a81548173ffffffffffffffffffffffffffffffffffffffff021916908373ffffffffffffffffffffffffffffffffffffffff1602179055505062000261565b6000815190506200012d8162000247565b92915050565b6000602082840312156200014c576200014b620001f3565b5b60006200015c848285016200011c565b91505092915050565b600062000174602983620001ae565b91506200018182620001f8565b604082019050919050565b60006020820190508181036000830152620001a78162000165565b9050919050565b600082825260208201905092915050565b6000620001cc82620001d3565b9050919050565b600073ffffffffffffffffffffffffffffffffffffffff82169050919050565b600080fd5b7f496e636f72726563742061646472657373202c206f6e6c7920636f6e7472616360008201527f7420616464726573730000000000000000000000000000000000000000000000602082015250565b6200025281620001bf565b81146200025e57600080fd5b50565b611c4d80620002716000396000f3fe608060405234801561001057600080fd5b50600436106100935760003560e01c806396074e701161006657806396074e70146100f85780639dd710ec14610114578063a961065514610144578063b6b55f2514610160578063c43a0ba11461017c57610093565b8063234fe113146100985780633e89340f146100b45780634e71d92d146100d25780635312ea8e146100dc575b600080fd5b6100b260048036038101906100ad9190611185565b610198565b005b6100bc6103b6565b6040516100c99190611631565b60405180910390f35b6100da6103c9565b005b6100f660048036038101906100f191906112a0565b61056b565b005b610112600480360381019061010d9190611185565b610680565b005b61012e60048036038101906101299190611158565b61081d565b60405161013b919061178e565b60405180910390f35b61015e600480360381019061015991906111c5565b610835565b005b61017a600480360381019061017591906112a0565b610ac2565b005b61019660048036038101906101919190611246565b610bdb565b005b3373ffffffffffffffffffffffffffffffffffffffff1660018054906101000a900473ffffffffffffffffffffffffffffffffffffffff1673ffffffffffffffffffffffffffffffffffffffff1614610226576040517f08c379a000000000000000000000000000000000000000000000000000000000815260040161021d906116ce565b60405180910390fd5b600081141580156102645750600073ffffffffffffffffffffffffffffffffffffffff168273ffffffffffffffffffffffffffffffffffffffff1614155b6102a3576040517f08c379a000000000000000000000000000000000000000000000000000000000815260040161029a906116ee565b60405180910390fd5b806000808473ffffffffffffffffffffffffffffffffffffffff1673ffffffffffffffffffffffffffffffffffffffff168152602001908152602001600020541015610324576040517f08c379a000000000000000000000000000000000000000000000000000000000815260040161031b9061168e565b60405180910390fd5b806000808473ffffffffffffffffffffffffffffffffffffffff1673ffffffffffffffffffffffffffffffffffffffff16815260200190815260200160002060008282546103729190611881565b925050819055507f179d7a4330b2f55d9db9d0b2a4be70af243b6fcf0d18e670f02ddac855218c9c82826040516103aa9291906115cd565b60405180910390a15050565b600160009054906101000a900460ff1681565b600160009054906101000a900460ff16610418576040517f08c379a000000000000000000000000000000000000000000000000000000000815260040161040f9061176e565b60405180910390fd5b60008060003373ffffffffffffffffffffffffffffffffffffffff1673ffffffffffffffffffffffffffffffffffffffff1681526020019081526020016000205490506000811161049e576040517f08c379a00000000000000000000000000000000000000000000000000000000081526004016104959061172e565b60405180910390fd5b60008060003373ffffffffffffffffffffffffffffffffffffffff1673ffffffffffffffffffffffffffffffffffffffff1681526020019081526020016000208190555061052f3382600260009054906101000a900473ffffffffffffffffffffffffffffffffffffffff1673ffffffffffffffffffffffffffffffffffffffff16610ccc9092919063ffffffff16565b7f368a942c54a7ec3a4bbe83317ae66067ee5e5e51a2f085a1b5d9ffcfb3b30c1833826040516105609291906115cd565b60405180910390a150565b3373ffffffffffffffffffffffffffffffffffffffff1660018054906101000a900473ffffffffffffffffffffffffffffffffffffffff1673ffffffffffffffffffffffffffffffffffffffff16146105f9576040517f08c379a00000000000000000000000000000000000000000000000000000000081526004016105f0906116ce565b60405180910390fd5b6106463382600260009054906101000a900473ffffffffffffffffffffffffffffffffffffffff1673ffffffffffffffffffffffffffffffffffffffff16610ccc9092919063ffffffff16565b7f99d7f8b71cfb9126984f7a5eed3a40e64a8959e9b0e442221546fb04ec6a489c81604051610675919061178e565b60405180910390a150565b3373ffffffffffffffffffffffffffffffffffffffff1660018054906101000a900473ffffffffffffffffffffffffffffffffffffffff1673ffffffffffffffffffffffffffffffffffffffff161461070e576040517f08c379a0000000000000000000000000000000000000000000000000000000008152600401610705906116ce565b60405180910390fd5b6000811415801561074c5750600073ffffffffffffffffffffffffffffffffffffffff168273ffffffffffffffffffffffffffffffffffffffff1614155b61078b576040517f08c379a0000000000000000000000000000000000000000000000000000000008152600401610782906116ee565b60405180910390fd5b806000808473ffffffffffffffffffffffffffffffffffffffff1673ffffffffffffffffffffffffffffffffffffffff16815260200190815260200160002060008282546107d9919061182b565b925050819055507fd84f1704ae8254a44d27c3d2322273242f750f232e0d74db25d16c1ca59e80f482826040516108119291906115cd565b60405180910390a15050565b60006020528060005260406000206000915090505481565b3373ffffffffffffffffffffffffffffffffffffffff1660018054906101000a900473ffffffffffffffffffffffffffffffffffffffff1673ffffffffffffffffffffffffffffffffffffffff16146108c3576040517f08c379a00000000000000000000000000000000000000000000000000000000081526004016108ba906116ce565b60405180910390fd5b81819050848490501461090b576040517f08c379a00000000000000000000000000000000000000000000000000000000081526004016109029061166e565b60405180910390fd5b60005b84849050811015610a7e57600073ffffffffffffffffffffffffffffffffffffffff16858583818110610944576109436119b7565b5b90506020020160208101906109599190611158565b73ffffffffffffffffffffffffffffffffffffffff16141580156109975750600083838381811061098d5761098c6119b7565b5b9050602002013514155b6109d6576040517f08c379a00000000000000000000000000000000000000000000000000000000081526004016109cd906116ee565b60405180910390fd5b8282828181106109e9576109e86119b7565b5b90506020020135600080878785818110610a0657610a056119b7565b5b9050602002016020810190610a1b9190611158565b73ffffffffffffffffffffffffffffffffffffffff1673ffffffffffffffffffffffffffffffffffffffff1681526020019081526020016000206000828254610a64919061182b565b925050819055508080610a769061193f565b91505061090e565b507f172f4729f25dda585ce7928b14204dadb033a94d2581c1074ed6b8f5f868251984848484604051610ab494939291906115f6565b60405180910390a150505050565b3373ffffffffffffffffffffffffffffffffffffffff1660018054906101000a900473ffffffffffffffffffffffffffffffffffffffff1673ffffffffffffffffffffffffffffffffffffffff1614610b50576040517f08c379a0000000000000000000000000000000000000000000000000000000008152600401610b47906116ce565b60405180910390fd5b610b9f333083600260009054906101000a900473ffffffffffffffffffffffffffffffffffffffff1673ffffffffffffffffffffffffffffffffffffffff16610d52909392919063ffffffff16565b7fe1fffcc4923d04b559f4d29a8bfc6cda04eb5b0d3c460751c2402c5c5cc9109c3382604051610bd09291906115cd565b60405180910390a150565b3373ffffffffffffffffffffffffffffffffffffffff1660018054906101000a900473ffffffffffffffffffffffffffffffffffffffff1673ffffffffffffffffffffffffffffffffffffffff1614610c69576040517f08c379a0000000000000000000000000000000000000000000000000000000008152600401610c60906116ce565b60405180910390fd5b80600160006101000a81548160ff0219169083151502179055507f174224bc8f0114d1075014005e58561e01b53b691975f967999c9a23ae92ea77600160009054906101000a900460ff16604051610cc19190611631565b60405180910390a150565b610d4d8363a9059cbb60e01b8484604051602401610ceb9291906115cd565b604051602081830303815290604052907bffffffffffffffffffffffffffffffffffffffffffffffffffffffff19166020820180517bffffffffffffffffffffffffffffffffffffffffffffffffffffffff8381831617835250505050610ddb565b505050565b610dd5846323b872dd60e01b858585604051602401610d7393929190611596565b604051602081830303815290604052907bffffffffffffffffffffffffffffffffffffffffffffffffffffffff19166020820180517bffffffffffffffffffffffffffffffffffffffffffffffffffffffff8381831617835250505050610ddb565b50505050565b6000610e3d826040518060400160405280602081526020017f5361666545524332303a206c6f772d6c6576656c2063616c6c206661696c65648152508573ffffffffffffffffffffffffffffffffffffffff16610ea29092919063ffffffff16565b9050600081511115610e9d5780806020019051810190610e5d9190611273565b610e9c576040517f08c379a0000000000000000000000000000000000000000000000000000000008152600401610e939061174e565b60405180910390fd5b5b505050565b6060610eb18484600085610eba565b90509392505050565b606082471015610eff576040517f08c379a0000000000000000000000000000000000000000000000000000000008152600401610ef6906116ae565b60405180910390fd5b610f0885610fce565b610f47576040517f08c379a0000000000000000000000000000000000000000000000000000000008152600401610f3e9061170e565b60405180910390fd5b6000808673ffffffffffffffffffffffffffffffffffffffff168587604051610f70919061157f565b60006040518083038185875af1925050503d8060008114610fad576040519150601f19603f3d011682016040523d82523d6000602084013e610fb2565b606091505b5091509150610fc2828286610ff1565b92505050949350505050565b6000808273ffffffffffffffffffffffffffffffffffffffff163b119050919050565b6060831561100157829050611051565b6000835111156110145782518084602001fd5b816040517f08c379a0000000000000000000000000000000000000000000000000000000008152600401611048919061164c565b60405180910390fd5b9392505050565b60008135905061106781611bd2565b92915050565b60008083601f840112611083576110826119eb565b5b8235905067ffffffffffffffff8111156110a05761109f6119e6565b5b6020830191508360208202830111156110bc576110bb6119f0565b5b9250929050565b60008083601f8401126110d9576110d86119eb565b5b8235905067ffffffffffffffff8111156110f6576110f56119e6565b5b602083019150836020820283011115611112576111116119f0565b5b9250929050565b60008135905061112881611be9565b92915050565b60008151905061113d81611be9565b92915050565b60008135905061115281611c00565b92915050565b60006020828403121561116e5761116d6119ff565b5b600061117c84828501611058565b91505092915050565b6000806040838503121561119c5761119b6119ff565b5b60006111aa85828601611058565b92505060206111bb85828601611143565b9150509250929050565b600080600080604085870312156111df576111de6119ff565b5b600085013567ffffffffffffffff8111156111fd576111fc6119f5565b5b6112098782880161106d565b9450945050602085013567ffffffffffffffff81111561122c5761122b6119f5565b5b611238878288016110c3565b925092505092959194509250565b60006020828403121561125c5761125b6119ff565b5b600061126a84828501611119565b91505092915050565b600060208284031215611289576112886119ff565b5b60006112978482850161112e565b91505092915050565b6000602082840312156112b6576112b56119ff565b5b60006112c484828501611143565b91505092915050565b60006112d983836112e5565b60208301905092915050565b6112ee816118b5565b82525050565b6112fd816118b5565b82525050565b600061130f83856117d6565b935061131a826117a9565b8060005b85811015611353576113308284611814565b61133a88826112cd565b9750611345836117c9565b92505060018101905061131e565b5085925050509392505050565b600061136c83856117e7565b93507f07ffffffffffffffffffffffffffffffffffffffffffffffffffffffffffffff83111561139f5761139e6119fa565b5b6020830292506113b08385846118fd565b82840190509392505050565b6113c5816118c7565b82525050565b60006113d6826117b3565b6113e081856117f8565b93506113f081856020860161190c565b80840191505092915050565b6000611407826117be565b6114118185611803565b935061142181856020860161190c565b61142a81611a04565b840191505092915050565b6000611442601c83611803565b915061144d82611a15565b602082019050919050565b6000611465601a83611803565b915061147082611a3e565b602082019050919050565b6000611488602683611803565b915061149382611a67565b604082019050919050565b60006114ab601783611803565b91506114b682611ab6565b602082019050919050565b60006114ce602083611803565b91506114d982611adf565b602082019050919050565b60006114f1601d83611803565b91506114fc82611b08565b602082019050919050565b6000611514601383611803565b915061151f82611b31565b602082019050919050565b6000611537602a83611803565b915061154282611b5a565b604082019050919050565b600061155a601183611803565b915061156582611ba9565b602082019050919050565b611579816118f3565b82525050565b600061158b82846113cb565b915081905092915050565b60006060820190506115ab60008301866112f4565b6115b860208301856112f4565b6115c56040830184611570565b949350505050565b60006040820190506115e260008301856112f4565b6115ef6020830184611570565b9392505050565b60006040820190508181036000830152611611818688611303565b90508181036020830152611626818486611360565b905095945050505050565b600060208201905061164660008301846113bc565b92915050565b6000602082019050818103600083015261166681846113fc565b905092915050565b6000602082019050818103600083015261168781611435565b9050919050565b600060208201905081810360008301526116a781611458565b9050919050565b600060208201905081810360008301526116c78161147b565b9050919050565b600060208201905081810360008301526116e78161149e565b9050919050565b60006020820190508181036000830152611707816114c1565b9050919050565b60006020820190508181036000830152611727816114e4565b9050919050565b6000602082019050818103600083015261174781611507565b9050919050565b600060208201905081810360008301526117678161152a565b9050919050565b600060208201905081810360008301526117878161154d565b9050919050565b60006020820190506117a36000830184611570565b92915050565b6000819050919050565b600081519050919050565b600081519050919050565b6000602082019050919050565b600082825260208201905092915050565b600082825260208201905092915050565b600081905092915050565b600082825260208201905092915050565b60006118236020840184611058565b905092915050565b6000611836826118f3565b9150611841836118f3565b9250827fffffffffffffffffffffffffffffffffffffffffffffffffffffffffffffffff0382111561187657611875611988565b5b828201905092915050565b600061188c826118f3565b9150611897836118f3565b9250828210156118aa576118a9611988565b5b828203905092915050565b60006118c0826118d3565b9050919050565b60008115159050919050565b600073ffffffffffffffffffffffffffffffffffffffff82169050919050565b6000819050919050565b82818337600083830152505050565b60005b8381101561192a57808201518184015260208101905061190f565b83811115611939576000848401525b50505050565b600061194a826118f3565b91507fffffffffffffffffffffffffffffffffffffffffffffffffffffffffffffffff82141561197d5761197c611988565b5b600182019050919050565b7f4e487b7100000000000000000000000000000000000000000000000000000000600052601160045260246000fd5b7f4e487b7100000000000000000000000000000000000000000000000000000000600052603260045260246000fd5b600080fd5b600080fd5b600080fd5b600080fd5b600080fd5b600080fd5b6000601f19601f8301169050919050565b7f617272617973206861766520646966666572656e74206c656e67746800000000600082015250565b7f62616c616e6365206c6f776572207468656e20616d6f756e745f000000000000600082015250565b7f416464726573733a20696e73756666696369656e742062616c616e636520666f60008201527f722063616c6c0000000000000000000000000000000000000000000000000000602082015250565b7f63616c6c6572206973206e6f7420746865206f776e6572000000000000000000600082015250565b7f62656e6566696369617279206f7220616d6f756e7420657175616c20746f2030600082015250565b7f416464726573733a2063616c6c20746f206e6f6e2d636f6e7472616374000000600082015250565b7f62616c616e6365206d757374206265203e203000000000000000000000000000600082015250565b7f5361666545524332303a204552433230206f7065726174696f6e20646964206e60008201527f6f74207375636365656400000000000000000000000000000000000000000000602082015250565b7f636c61696d206973206c6f636b65642021000000000000000000000000000000600082015250565b611bdb816118b5565b8114611be657600080fd5b50565b611bf2816118c7565b8114611bfd57600080fd5b50565b611c09816118f3565b8114611c1457600080fd5b5056fea2646970667358221220afd22826578934d9539822a0a5901b003aac7e319e0c69e1e7374d8fc85c47c964736f6c63430008070033",
  "immutableReferences": {},
  "source": "// SPDX-License-Identifier: MIT\n\npragma solidity 0.8.7;\n\nimport \"@openzeppelin/contracts/token/ERC20/IERC20.sol\";\nimport \"@openzeppelin/contracts/token/ERC20/utils/SafeERC20.sol\";\n\n/**\n * @title DistributionContract\n * @author ZaniInc\n * @notice This smart contract is used for sends ERC20 tokens to beneficiaries\n */\ncontract DistributionContract {\n    using SafeERC20 for IERC20;\n\n    /**\n     * @notice store balances of beneficiaries\n     * @return amounts of tokens\n     */\n    mapping(address => uint256) public balanceOfBeneficiares;\n\n    /**\n     * @dev contains status of claim function\n     * @notice if lockStatus == false , can't call claim\n     */\n    bool public lockStatus;\n\n    address private _contractOwner;\n    IERC20 private _token;\n\n    /**\n     * @dev 'RewardCollect' info about success filled balance of beneficiaries\n     * @notice used in two functions 'addBeneficiaries' and 'addBeneficiary'\n     *\n     * @param beneficiaries - account whose balance we filled\n     * @param amount - how many tokens will receive by beneficiar\n     */\n    event RewardCollectBeneficiaries(address[] beneficiaries, uint256[] amount);\n\n    /**\n     * @dev 'RewardCollect' info about success filled balance of beneficiaries\n     * @notice used in two functions 'addBeneficiaries' and 'addBeneficiary'\n     *\n     * @param beneficiary - account address of beneficiary\n     * @param amount - how many tokens will receive by beneficiary\n     */\n    event RewardCollectBeneficiary(address beneficiary, uint256 amount);\n\n    /**\n     * @dev 'ClaimInfo' info about success withdraw balance by beneficiaries\n     * @notice used in function 'Claim'\n     *\n     * @param beneficiaries - account which call function and get tokens\n     * @param amount - how many tokens received to beneficiar\n     */\n    event ClaimInfo(address beneficiaries, uint256 amount);\n\n    /**\n     * @dev 'LockStatus' need to inform about changes of state variable 'lockStatus'\n     *\n     * @param lock - get 'true' or 'false' , has impact on work 'claim' function\n     */\n    event LockStatus(bool lock);\n\n    /**\n     * @dev 'Deposit' inform about transfer ERC20 tokens from owner to contract balance\n     *\n     * @param owner - address of contract owner\n     * @param amount - how many tokens transfers\n     */\n    event Deposit(address owner, uint256 amount);\n\n    /**\n     * @dev 'DecreaseReward' inform about how much balance reduced\n     *\n     * @param beneficiary - address of beneficiary\n     * @param amount - how many tokens will reduced\n     */\n    event DecreaseReward(address beneficiary, uint256 amount);\n\n    /**\n     * @dev 'EmergencyWithdraw' inform about how many tokens will\n     * returns to owner balance\n     *\n     * @param amount - how many tokens will returns\n     */\n    event EmergencyWithdraw(uint256 amount);\n\n    /**\n     * @dev modifier which contains conditions who's can call functions\n     *\n     * NOTE : if function have 'onlyOwner' thats mean call this function\n     * can only address which contained in '_contractOwner'\n     */\n    modifier onlyOwner() {\n        require(_contractOwner == msg.sender, \"caller is not the owner\");\n        _;\n    }\n\n    /**\n     * @dev Set _token IERC20 to interact with thrid party token\n     *\n     * Put address to state variable '_contractOwner'\n     *\n     * @param myToken_ of ERC20 contract\n     */\n    constructor(address myToken_) {\n        require(\n            myToken_.code.length > 0,\n            \"Incorrect address , only contract address\"\n        );\n        _token = IERC20(myToken_);\n        _contractOwner = msg.sender;\n    }\n\n    /**\n     * @dev send ERC20 tokens from '_contractOwner' balance to SC\n     *\n     * @param amount_ how many tokens send\n     *\n     * NOTE : this function use wrapper of safeERC20 library\n     * check 'SafeERC20.sol' for more information\n     */\n    function deposit(uint256 amount_) external onlyOwner {\n        _token.safeTransferFrom(msg.sender, address(this), amount_);\n        emit Deposit(msg.sender, amount_);\n    }\n\n    /**\n     * @dev filling beneficiaries balances\n     *\n     * @param beneficiaries_ , contains who's will get tokens\n     * @param amount_ , how many tokens will get\n     * Requirements:\n     *\n     * - `owner` cannot be the zero address.\n     * - `spender` cannot be the zero address.\n     * - 'beneficiaries_' & 'amount_' must have same length\n     */\n    function addBeneficiaries(\n        address[] calldata beneficiaries_,\n        uint256[] calldata amount_\n    ) external onlyOwner {\n        require(\n            beneficiaries_.length == amount_.length,\n            \"arrays have different length\"\n        );\n        for (uint256 i; i < beneficiaries_.length; i++) {\n            require(\n                beneficiaries_[i] != address(0) && amount_[i] != 0,\n                \"beneficiary or amount equal to 0\"\n            );\n            balanceOfBeneficiares[beneficiaries_[i]] += amount_[i];\n        }\n        emit RewardCollectBeneficiaries(beneficiaries_, amount_);\n    }\n\n    /**\n     * @dev filling beneficiary balance\n     *\n     * @param beneficiary_ , contains who's will get tokens\n     * @param amount_ , how many tokens will get\n     * Requirements:\n     *\n     * - `owner` cannot be the zero address.\n     * - `spender` cannot be the zero address.\n     */\n    function addBeneficiary(address beneficiary_, uint256 amount_)\n        external\n        onlyOwner\n    {\n        require(\n            amount_ != 0 && beneficiary_ != address(0),\n            \"beneficiary or amount equal to 0\"\n        );\n        balanceOfBeneficiares[beneficiary_] += amount_;\n        emit RewardCollectBeneficiary(beneficiary_, amount_);\n    }\n\n    /**\n     * @dev decrease balance of beneficiary\n     *\n     * @param beneficiary_ , contains which balance will reduced\n     * @param amount_ , how many tokens will reduced\n     * Requirements:\n     *\n     * - `owner` cannot be the zero address.\n     * - `spender` cannot be the zero address.\n     */\n    function decreaseReward(address beneficiary_, uint256 amount_)\n        external\n        onlyOwner\n    {\n        require(\n            amount_ != 0 && beneficiary_ != address(0),\n            \"beneficiary or amount equal to 0\"\n        );\n        require(\n            balanceOfBeneficiares[beneficiary_] >= amount_,\n            \"balance lower then amount_\"\n        );\n        balanceOfBeneficiares[beneficiary_] -= amount_;\n        emit DecreaseReward(beneficiary_, amount_);\n    }\n\n    /**\n     * @dev this function allow owner get back tokens\n     *\n     * @param amount_ , how many tokens will withdraw\n     *\n     */\n    function emergencyWithdraw(uint256 amount_) external onlyOwner {\n        _token.safeTransfer(msg.sender, amount_);\n        emit EmergencyWithdraw(amount_);\n    }\n\n    /**\n     * @dev change state of 'lockStatus'\n     *\n     * @param lock_ , contains boolean value\n     *\n     * NOTE : this function affects the ability of the beneficiary\n     * to receive tokens\n     */\n    function lockRewards(bool lock_) external onlyOwner {\n        lockStatus = lock_;\n        emit LockStatus(lockStatus);\n    }\n\n    /**\n     * @dev this function allows beneficiary to withdraw\n     * their tokens\n     *\n     * NOTE : send all tokens that are available on the balance\n     *\n     */\n    function claim() external {\n        require(lockStatus, \"claim is locked !\");\n        uint256 amount = balanceOfBeneficiares[msg.sender];\n        require(amount > 0, \"balance must be > 0\");\n        balanceOfBeneficiares[msg.sender] = 0;\n        _token.safeTransfer(msg.sender, amount);\n        emit ClaimInfo(msg.sender, amount);\n    }\n}\n",
  "sourcePath": "/Users/pavel/FirstTaskZanozin/contracts/DistributionContract.sol",
  "compiler": {
    "name": "solc",
    "version": "0.8.7+commit.e28d00a7.Emscripten.clang"
  },
  "schemaVersion": "3.3.4",
  "updatedAt": "2022-06-09T13:25:38.327Z",
  "networkType": "ethereum",
  "devdoc": {
    "author": "ZaniInc",
    "events": {
      "ClaimInfo(address,uint256)": {
        "details": "'ClaimInfo' info about success withdraw balance by beneficiaries",
        "params": {
          "amount": "- how many tokens received to beneficiar",
          "beneficiaries": "- account which call function and get tokens"
        }
      },
      "DecreaseReward(address,uint256)": {
        "details": "'DecreaseReward' inform about how much balance reduced",
        "params": {
          "amount": "- how many tokens will reduced",
          "beneficiary": "- address of beneficiary"
        }
      },
      "Deposit(address,uint256)": {
        "details": "'Deposit' inform about transfer ERC20 tokens from owner to contract balance",
        "params": {
          "amount": "- how many tokens transfers",
          "owner": "- address of contract owner"
        }
      },
      "EmergencyWithdraw(uint256)": {
        "details": "'EmergencyWithdraw' inform about how many tokens will returns to owner balance",
        "params": {
          "amount": "- how many tokens will returns"
        }
      },
      "LockStatus(bool)": {
        "details": "'LockStatus' need to inform about changes of state variable 'lockStatus'",
        "params": {
          "lock": "- get 'true' or 'false' , has impact on work 'claim' function"
        }
      },
      "RewardCollectBeneficiaries(address[],uint256[])": {
        "details": "'RewardCollect' info about success filled balance of beneficiaries",
        "params": {
          "amount": "- how many tokens will receive by beneficiar",
          "beneficiaries": "- account whose balance we filled"
        }
      },
      "RewardCollectBeneficiary(address,uint256)": {
        "details": "'RewardCollect' info about success filled balance of beneficiaries",
        "params": {
          "amount": "- how many tokens will receive by beneficiary",
          "beneficiary": "- account address of beneficiary"
        }
      }
    },
    "kind": "dev",
    "methods": {
      "addBeneficiaries(address[],uint256[])": {
        "details": "filling beneficiaries balances",
        "params": {
          "amount_": ", how many tokens will get Requirements: - `owner` cannot be the zero address. - `spender` cannot be the zero address. - 'beneficiaries_' & 'amount_' must have same length",
          "beneficiaries_": ", contains who's will get tokens"
        }
      },
      "addBeneficiary(address,uint256)": {
        "details": "filling beneficiary balance",
        "params": {
          "amount_": ", how many tokens will get Requirements: - `owner` cannot be the zero address. - `spender` cannot be the zero address.",
          "beneficiary_": ", contains who's will get tokens"
        }
      },
      "claim()": {
        "details": "this function allows beneficiary to withdraw their tokens NOTE : send all tokens that are available on the balance"
      },
      "constructor": {
        "details": "Set _token IERC20 to interact with thrid party token Put address to state variable '_contractOwner'",
        "params": {
          "myToken_": "of ERC20 contract"
        }
      },
      "decreaseReward(address,uint256)": {
        "details": "decrease balance of beneficiary",
        "params": {
          "amount_": ", how many tokens will reduced Requirements: - `owner` cannot be the zero address. - `spender` cannot be the zero address.",
          "beneficiary_": ", contains which balance will reduced"
        }
      },
      "deposit(uint256)": {
        "details": "send ERC20 tokens from '_contractOwner' balance to SC",
        "params": {
          "amount_": "how many tokens send NOTE : this function use wrapper of safeERC20 library check 'SafeERC20.sol' for more information"
        }
      },
      "emergencyWithdraw(uint256)": {
        "details": "this function allow owner get back tokens",
        "params": {
          "amount_": ", how many tokens will withdraw"
        }
      },
      "lockRewards(bool)": {
        "details": "change state of 'lockStatus'",
        "params": {
          "lock_": ", contains boolean value NOTE : this function affects the ability of the beneficiary to receive tokens"
        }
      }
    },
    "stateVariables": {
      "balanceOfBeneficiares": {
        "return": "amounts of tokens",
        "returns": {
          "_0": "amounts of tokens"
        }
      },
      "lockStatus": {
        "details": "contains status of claim function"
      }
    },
    "title": "DistributionContract",
    "version": 1
  },
  "userdoc": {
    "events": {
      "ClaimInfo(address,uint256)": {
        "notice": "used in function 'Claim'"
      },
      "RewardCollectBeneficiaries(address[],uint256[])": {
        "notice": "used in two functions 'addBeneficiaries' and 'addBeneficiary'"
      },
      "RewardCollectBeneficiary(address,uint256)": {
        "notice": "used in two functions 'addBeneficiaries' and 'addBeneficiary'"
      }
    },
    "kind": "user",
    "methods": {
      "balanceOfBeneficiares(address)": {
        "notice": "store balances of beneficiaries"
      },
      "lockStatus()": {
        "notice": "if lockStatus == false , can't call claim"
      }
    },
    "notice": "This smart contract is used for sends ERC20 tokens to beneficiaries",
    "version": 1
  }
}